:020000040800F2
:100000002807002029020008111600080916000818
:100010000D160008D5030008311800080000000084
:100020000000000000000000000000001916000899
:10003000D903000800000000151600081D1600086E
:10004000430200084302000843020008430200087C
:10005000430200084302000843020008430200086C
:10006000430200084302000843020008430200085C
:10007000430200084302000843020008430200084C
:10008000430200084302000843020008430200083C
:10009000430200084302000843020008430200082C
:1000A000430200084302000843020008430200081C
:1000B000D916000843020008430200084302000862
:1000C00043020008430200084302000843020008FC
:1000D00043020008430200084302000843020008EC
:1000E00043020008430200084302000843020008DC
:1000F00043020008430200084302000843020008CC
:1001000043020008430200084302000843020008BB
:1001100043020008430200084302000843020008AB
:10012000430200084302000843020008430200089B
:10013000430200084302000843020008430200088B
:10014000430200084302000843020008430200087B
:10015000430200084302000843020008430200086B
:10016000430200084302000843020008430200085B
:100170004302000843020008430200080000000098
:10018000430200084302000800F002F800F03CF8C7
:100190000AA090E8000C82448344AAF10107DA45E2
:1001A00001D100F031F8AFF2090EBAE80F0013F0F8
:1001B000010F18BFFB1A43F001031847C41D0000CC
:1001C000E41D0000103A24BF78C878C1FAD852075D
:1001D00024BF30C830C144BF04680C6070470000C1
:1001E0000023002400250026103A28BF78C1FBD840
:1001F000520728BF30C148BF0B6070471FB501F0E0
:1002000099FE1FBD10B510BD00F0A9F81146FFF70B
:10021000F5FF01F041FC00F0C7F803B4FFF7F2FF6F
:1002200003BC00F0CFF800000948804709480047A8
:10023000FEE7FEE7FEE7FEE7FEE7FEE7FEE7FEE796
:10024000FEE7FEE704480549054A064B70470000F3
:10025000C516000889010008280100202807002091
:10026000280300202803002053EA020C00F06980D4
:100270002DE9F04B4FF00006002B1FBFB3FA83F5BA
:1002800003FA05F424FA05F65E4012BF1643B2FAEB
:1002900082F502FA05F4C5F120051EBF22FA05FC1D
:1002A00044EA0C04203556EA044C4FEA144418BFC3
:1002B000641C4FF000084FF00009904271EB030CF2
:1002C00039D3002919BFB1FA81F701FA07F6B0FA5C
:1002D00080F700FA07F6C7F120071EBF20FA07FCD7
:1002E00046EA0C062037B6FBF4FCA7EB0507103FE7
:1002F00007F01F0BCBF120062CFA06F60CFA0BFBCD
:1003000044BFB3460026202FA4BF5E464FF0000B2B
:100310005BEA060C08BF4FF0010B19EB0B0948EB29
:100320000608ABFB027C06FB02CC0BFB03CCC01B1C
:1003300071EB0C01C1E70B46024641464846BDE859
:10034000F08B13B5084318BF4FF0FF300146AFF3F1
:100350000080BDE81C407047704770477047754685
:1003600000F02CF8AE4605006946534620F0070021
:10037000854618B020B5FFF765FFBDE820404FF077
:1003800000064FF000074FF000084FF0000BAC469E
:10039000ACE8C009ACE8C009ACE8C009ACE8C009E9
:1003A00021F007018D46704710B50446AFF3008079
:1003B0002046BDE81040FFF730BF000000487047FE
:1003C0001000002001491820ABBEFEE72600020005
:1003D00070470000FEE7000070470000B0B504461B
:1003E00000F0F0F8054640F20000C2F2000000788C
:1003F000611C18BF044400BF00F0E4F8401BA04299
:10040000FAD3B0BD2DE9F04F82B000F13E4241F683
:10041000004502F1FF77C4F20205082243F6004EC0
:100420004FEAB726A84208BF0722C4F2010E072EE2
:1004300038BF4FEAB7220125002600274FF00008F9
:10044000009208E008F101080437B8F1100F06F136
:10045000020600F0A7800C6805FA08F914EA090FF3
:10046000F0D0D1F804B003220BF0030CACF101047E
:10047000B240012C6FEA020A10D88268CC6802EA06
:100480000A02B440224382604268CBF3001422EA9D
:10049000090204FA08F42243426005E0BCF1030FAC
:1004A00002D14FF0030C20E0C2688C6802EA0A0215
:1004B000B4402243BCF1020FC26016D16FF00302B8
:1004C00002EA58020244D2F820C007F01C050F23AC
:1004D0000C69AB402CEA030304FA05F52B431362C5
:1004E000D1F804B001250BF0030C02680CFA06F3F6
:1004F00002EA0A021A431BF4403F0260A2D0002223
:1005000043F644030192C4F202031A684FF6084C02
:1005100042F480421A601A68CFF6FF7C02F48042EF
:100520000192019A28F00302724452F80C3007F04D
:100530000C050F24AC40A343009C04FA05F52B43A3
:1005400042F80C30DEF808204B6842EA090543F611
:100550000C4CDC0258BF22EA0905CEF80850C4F260
:10056000010CDCF800209C0242EA090558BF22EA8F
:100570000905CCF80050DEF804209C0342EA090586
:1005800058BF22EA0905CEF80450DEF80020DB034C
:1005900042EA090558BF22EA0905CEF800500125B4
:1005A00050E700BF02B0BDE8F08F000000690840CE
:1005B00018BF012070470000002A08BF09048161AC
:1005C0007047000040F22010C2F20000006870473F
:1005D00040F2000040F22011C2F20000C2F200011D
:1005E00000780A68104408607047000080B543F640
:1005F0000040C4F20200016841F40071016001682A
:1006000041F480610160016841F480710160032060
:1006100000F088F80F2000F005F800F027F800201F
:1006200080BD000070B540F20006C2F2000640F244
:1006300008013278C2F200014FF47A730968B3FB03
:10064000F2F20446B1FBF2F1084600F01BFB0F2C5E
:100650004FF0010508D838B94FF0FF30214600228D
:10066000002500F033F87460284670BD82B0002089
:1006700043F640010190C4F202014A6842F480420C
:100680004A604A6802F480420192019A0090086828
:1006900040F080500860086800F08050009000989A
:1006A00002B07047002848BF7047C1B200F01F0079
:1006B000012202FA00F04EF20012CEF2000242EAEB
:1006C000D10121F0030108607047000010B54EF61B
:1006D0000C5CCEF2000CDCF80030C3F3022E8EF07E
:1006E0000704042C28BF0424BEF103034FF0FF3E8F
:1006F0000EFA04F438BF0023A14399400EFA03F325
:100700009A43114300F00F0200F160430901043ADB
:1007100003F564436244002848BF02F10C031970DA
:1007200010BD00004EF60C51CEF200010A684FF6E3
:10073000FF031A4060F30A2242F0806040F0FD702F
:10074000086070472DE9F041002800F08B8043F6E7
:100750000808C4F202080446D8F8F8030D4600F071
:100760000700884207D288F8F853D8F8F80300F059
:100770000700A84276D12068810717D5410705D523
:10078000D8F8001041F4E051C8F80010010705D571
:10079000D8F8001041F46041C8F80010D8F80010F3
:1007A000A26821F0F0011143C8F80010C0073FD142
:1007B000D8F8F80300F00700A84207D988F8F853E2
:1007C000D8F8F80300F00700A8424BD12068410791
:1007D00007D5D8F80010E26821F4E0511143C8F8B9
:1007E0000010000708D5D8F80000216920F4604007
:1007F00040EAC100C8F8000000F054F8D8F8001032
:1008000041F64E72C1F30311C0F60002515C40F292
:10081000080220FA01F140F20400C2F20000006870
:10082000C2F200021160FFF7FDFE0020BDE8F0817A
:100830006068811E022907D258F8081C89015CBF34
:100840000120BDE8F08111E0012807D158F8081C0B
:1008500089035CBF0120BDE8F08107E058F8081C5F
:10086000890703D40120BDE8F08100BFD8F800104B
:1008700021F003010843C8F80000FFF7A3FE064675
:1008800041F28837D8F80000616800F00C00B0EB46
:10089000810F8DD0FFF796FE801BB842F2D903205E
:1008A000BDE8F08110B543F60404C4F202046068A8
:1008B00000F00C0008280BD0042819BF42F20040B9
:1008C000C0F2F40047F64000C0F27D1010BD00BF3A
:1008D000206821682368490247F64001C0F27D1173
:1008E00000F03F02C3F388105CBF42F20041C0F247
:1008F000F401A1FB00010023FFF7B6FC21680222EE
:10090000C1F3014102EB4101B0FBF1F010BD000069
:100910002DE9F04182B0002868D00446007843F603
:100920000006C007C4F202060BD0B06800F00C004D
:10093000042840F09F803068800302D5606800285A
:1009400054D0207880071AD5B06810F00C0F09D069
:10095000B06800F00C00082840F0A68070684002E3
:1009600000F1A2803068800702D5E06801283DD1FF
:100970003068216920F0F80040EAC100306020783A
:10098000000737D4207840074CD4A56955B3B06828
:1009900000F00C00082840F0BB80012D26D07068C4
:1009A000E16900F480028A4220D1216A00F03F020E
:1009B0008A421BD147F6C071626A0140B1EB821FC7
:1009C00014D1A16A4FF6FF73C903994300F4403272
:1009D000A1F580318A4209D1E16A00F07060B0EB84
:1009E000016F03D1002002B0BDE8F081012002B008
:1009F000BDE8F0816069002840F20000C4F24720A1
:100A000076D00121C0F8801EFFF7DCFD054600BF4F
:100A1000706F8007B6D4FFF7D5FD401B0228F7D9C9
:100A2000DDE000BF306C10F080580AD1002001904A
:100A3000306C40F080503064306C00F08050019099
:100A4000019847F20007C4F200073868C00541D496
:100A5000386840F480703860FFF7B4FD054600BF89
:100A60003868C00536D4FFF7ADFD401B0228F7D922
:100A7000B5E000BFB06800F00C00082803D1706832
:100A800040023FF558AF6068B0F5803F07D0B0F541
:100A9000A02F40F08D80306840F4802030603068B6
:100AA00040F4803030608DE0E068002852D00020B3
:100AB000C4F2472001210160FFF784FD054600BF15
:100AC000306880073FF554AFFFF77CFD401B0228DC
:100AD000F6D984E0A068012805D005284ED1306FF2
:100AE00040F004003067306F40F0010030674FE0A5
:100AF0000021C0F8801EFFF765FD0546706F800776
:100B00007FF540AFFFF75EFD401B0228F6D966E097
:100B10000027C4F2472700203866FFF753FD022D57
:100B200005460BD1306880015ED5FFF74BFD401BB9
:100B300002284FF00300F5D955E700BF3068800167
:100B40007FF550AFFFF73EFD401B02284FF003003A
:100B5000F4D948E70020C4F2472000210160FFF7E4
:100B600031FD0546306880077FF509AFFFF72AFDA4
:100B7000401B02284FF00300F4D934E7316F0028FE
:100B800021F001013167316F21F0040131674DD04F
:100B9000FFF718FD054641F2883700BF306F800728
:100BA00056D4FFF70FFD401BB842F7D917E000BF3E
:100BB0003168002821F480313160316821F48021CE
:100BC00031604FD0FFF7FEFC054600BF3068800360
:100BD0003FF5B7AEFFF7F6FC401B6428F6D90320BB
:100BE00002B0BDE8F08100BF04F11C052FCD084321
:100BF00040EA8210D9034FF6FF729143A1F580318C
:100C000040EA05600843706001203866FFF7DAFCAF
:100C1000044600BF306880013FF5E4AEFFF7D2FC28
:100C2000001B02284FF00300F4D9DCE6FFF7CAFCF2
:100C3000054641F2883700BF306F800708D5FFF7BF
:100C4000C1FC401BB8424FF00300F5D9CBE600BF12
:100C5000B8F1000F7FF499AE306C20F08050306412
:100C600093E600BFFFF7AEFC054600BF3068800387
:100C70007FF567AEFFF7A6FC401B64284FF003002A
:100C8000F4D9B0E6411E0020B0EB116F1CBF01206B
:100C900070474EF21002CEF2000251604EF6235120
:100CA000CEF20001F0230B700721906011607047B5
:100CB000704700007047000010B590F83C20012AF2
:100CC0004FF0020251D080F83D200268D2F804E0D3
:100CD000D2F808C00C682EF07003234341F2FF7471
:100CE000C4F20004A24253600EDC40F2FF73C4F26F
:100CF00000039A4216DCB2F1804F2BD040F2004341
:100D0000C4F2000324E000BF40F2FF33C4F2010349
:100D10009A4213DC41F60003C4F200039A4219D050
:100D2000002313E040F60003C4F200039A4211D0FE
:100D300040F60043C4F200030AE000BF44F200039F
:100D4000C4F201039A4205D040F20043C4F2010309
:100D50009A4204D149682CF0800319439160012123
:100D6000002280F83D1080F83C20104610BD0000A5
:100D7000002804BF0120704710B5044690F83D00DC
:100D800028B9002084F83C00204600F01FF802201B
:100D900084F83D002068211D00F0A4FC012084F8A7
:100DA000460084F83E0084F83F0084F8400084F850
:100DB000410084F8420084F8430084F8440084F839
:100DC000450084F83D00002010BD000080B582B0D1
:100DD0000068B0F1804F15D00021C4F201018842B3
:100DE0000ED10020019043F64000C4F20200416899
:100DF00041F001014160406800F00100019001985C
:100E000002B080BD0020009043F64000C4F2020012
:100E10000168002241F0010101600068022100F038
:100E20000100009000981C20FFF750FC1C2002B02D
:100E3000BDE88040FFF736BC90F83D1001291CBF8B
:100E400001207047022180F83D10006841F2FF71D7
:100E5000C4F2000188420DDC40F2FF71C4F20001CF
:100E6000884215DCB0F1804F2AD040F20041C4F234
:100E7000000123E040F2FF31C4F20101884213DC9B
:100E800041F60001C4F20001884219D0002113E0AC
:100E900040F60001C4F20001884211D040F6004142
:100EA000C4F200010AE000BF44F20001C4F20101F3
:100EB000884205D040F20041C4F20101884206D1C7
:100EC000816801F00701062904BF0020704701680E
:100ED00041F00101016000207047000080B590F8EA
:100EE0003C20012A4FF0020200F0C28080F83D2031
:100EF000D0F800C04FF67772DCF8083023EA02021F
:100F0000CCF808200B684F2B28DC1F2B44DD202B4E
:100F100045D0302B43D0402B40F0AC80D1F804E0DA
:100F2000C968DCF82030DCF8202022F00102CCF87F
:100F30002020DCF8182022F0F00242EA011123F010
:100F40000A0242EA0E02CCF81810CCF82020DCF895
:100F5000081041F0470121F0300180E06F2B27DDC0
:100F6000B3F5005F48D0B3F5805F7AD0702B40F0C6
:100F70008180D1E901E3C968DCF8082043EA0E0367
:100F800022F47F4243EA01211143CCF80810DCF837
:100F9000081041F0770162E00BB1102B6AD1DCF848
:100FA000081021F07001194341F0070157E000BF1C
:100FB000502B35D0602B5DD1D1F804E0C968DCF846
:100FC0002030DCF8202022F01002CCF82020DCF8C1
:100FD000182022F4704242EA013123F0A00242EAD2
:100FE0000E12CCF81810CCF82020DCF8081041F0D4
:100FF000670121F0100132E0D1E901E3C968DCF8B2
:10100000082043EA0E0322F47F4243EA0121114300
:10101000CCF80810DCF8081041F480411FE000BF54
:10102000D1F804E0C968DCF82030DCF8202022F098
:101030000102CCF82020DCF8182022F0F00242EA6D
:10104000011123F00A0242EA0E02CCF81810CCF883
:101050002020DCF8081041F0570121F02001CCF8E5
:1010600008100022012180F83D10002180F83C107A
:10107000104680BD0122F5E77047000070B50446B8
:101080000068C5680669B10716D515F0020113D0CE
:101090006FF002010161012121778069800703D08F
:1010A0002046FFF7E9FF05E0204600F0B7F82046AC
:1010B00000F0F8F900202077700719D515F004002A
:1010C00016D020686FF00401016102212177806948
:1010D00010F4407F04D02046FFF7CEFF06E000BFAB
:1010E000204600F09BF8204600F0DCF90020207735
:1010F000300717D515F0080014D020686FF00801EC
:10110000016104212177C069800703D02046FFF7E1
:10111000B3FF05E0204600F081F8204600F0C2F958
:1011200000202077F00619D515F0100016D02068A1
:101130006FF01001016108212177C06910F4407F30
:1011400004D02046FFF798FF06E000BF204600F0DD
:1011500065F8204600F0A6F900202077F00718BFB8
:1011600015F0010002D1300609D412E020686FF0BA
:1011700001010161204600F043FA300609D515F05F
:10118000800006D020686FF0800101612046FFF7E3
:101190008FFD700609D515F0400006D020686FF06D
:1011A00040010161204600F02DFAB00658BF70BD25
:1011B00015F0200008D021686FF0200220460A6157
:1011C000BDE87040FFF776BD70BD000080B586B009
:1011D0000068B0F1804F01D006B080BD002043F61A
:1011E00030010190C4F202010A6842F001020A6073
:1011F000096801F001010191019920210191022169
:10120000CDE902100490012005900020C4F20200F4
:1012100001A9FFF7F7F806B080BD00007047000095
:101220002DE9F04390F83C30012B04BF0220BDE8CB
:10123000F0834FEAB202032A00F2FC80DFE802F0FA
:10124000023E7EBE036840F200471C6A1A6A24F020
:10125000020422F001021A621A46D3F804E052F89E
:1012600018CF8E6843F48065C4F20107BD4244EA9A
:10127000060405D1CE6824F00C0426F0040634439D
:101280000E68BD4207D1D1E905572EF4407E45EAEC
:101290000E0545EA070E2CF073073743C3F804E048
:1012A0009F614F6809695F631C629F6947F0080787
:1012B0009F619F6927F004079F61B1E0036840F2D6
:1012C00000481C6A1A6A24F0200422F010021A62F4
:1012D0001A46D3F804C052F818EF8F6843F48065BB
:1012E000C4F20108454544EA071407D1CF686FF0FE
:1012F000400624F0C00406EA07163443D1F80090F3
:10130000454506D1D1E905562CF440672E4347EAFE
:10131000860C2EF4E64747EA0927C3F804C09F610C
:101320004F6809699F631C629F6947F400679F616A
:101330009F6927F480679F6171E000BF036840F2F6
:1013400000481C6A1A6A24F4007422F480721A623B
:101350001A46D3F804C052F81CEF8F6843F4806536
:10136000C4F20108454544EA072408D1CF6840F299
:10137000FF463F0224F4406427EA06063443D1F8CE
:101380000090454506D1D1E905562CF440572E432F
:1013900047EA061C2EF0730747EA0907C3F804C0A2
:1013A000DF614F680969DF631C62DF6947F0080786
:1013B000DF61DF6927F00407DF6131E0036840F295
:1013C0000045D3F820C01A6A43F4806722F48052A3
:1013D0001A621A465C6852F81CEFD1F800808E68D9
:1013E000C4F20105AF4204D14D6924F4804444EABB
:1013F00085142CF4005747EA06372EF4E64646EAF1
:1014000008265C60DE614E6809691E641F62DF6940
:1014100047F40067DF61DF6927F48067DF61090255
:101420001368194311600021002280F83C2008460F
:10143000BDE8F0830121002280F83C200846BDE889
:10144000F0830000002804BF0120704710B5044657
:1014500090F83D0028B9002084F83C00204600F0B8
:101460001FF8022084F83D002068211D00F03AF9A1
:10147000012084F8460084F83E0084F83F0084F898
:10148000400084F8410084F8420084F8430084F866
:10149000440084F8450084F83D00002010BD0000A1
:1014A000704700007047000041B1082916D0042998
:1014B00014BF00F1410200F13F0211E090F83E201C
:1014C000012A1CBF01207047022280F83E204FEA0B
:1014D000B103032B4FF0010216D81FE000F14002C8
:1014E0001278012A1CBF01207047022208290DD062
:1014F000042914BF80F8412080F83F204FEAB1034F
:10150000032B4FF0010209D91046704780F84020A4
:101510004FEAB103032B4FF00102F5D841F6607C8E
:101520000068C0F6000C5CF823C0C36801F01F011E
:1015300043EA0C03C360036A02FA01F123EA0102E1
:101540000262026A114341F2FF72C4F20002904249
:1015500001620FDC40F2FF71C4F2000188421BDC23
:10156000B0F1804F3ED040F20041C4F20001884209
:1015700038D03FE040F2FF31C4F20101884219DC6B
:1015800041F60001C4F2000188422BD00021C4F2D0
:10159000010188421AD02DE040F60001C4F200019A
:1015A00088421FD040F60041C4F20001884219D0A1
:1015B00020E000BF44F20001C4F20101884211D0D2
:1015C00040F20041C4F20101884213D1416C40F263
:1015D000004340F48062C4F2010341F400419A42A6
:1015E000416407D1816801F00701062902D1002278
:1015F00010467047016841F001010160002070470A
:101600007047000070470000FEE70000FEE70000A2
:10161000FEE700007047000070470000FEF7D8BFEB
:10162000B0B592B0002443F640000B94CDE90944D4
:10163000CDE907440594CDE90344CDE90144009484
:10164000C4F202000168022541F080510160006887
:1016500000F080500090009847F200000094C4F21F
:101660000000016841F480410160006800F480409E
:10167000009000980120099010200A9008200E90F8
:101680004820CDE90F050420119006A80695CDE964
:101690000C54FFF73DF918B172B600BFFEE700BF6A
:1016A0000F20CDE901054FF48050CDE9040401A8D5
:1016B00002210394FFF746F810B172B6FEE700BFAF
:1016C00012B0B0BD4EF68850CEF20000016841F471
:1016D000700101607047000040F2D800C2F20000C3
:1016E000FFF7CCBC10B540F6FF3E0368C4F2000E15
:1016F00040F2004C7045C4F2010C27DCB0F1804F81
:1017000031D040F20042C4F2000290422BD040F6A9
:101710000002C4F20002904225D041F6FF72C4F2EA
:101720000002904229DC70453CDCB0F1804F5FD074
:1017300040F20042C4F20002904259D040F600024A
:10174000C4F20002904253D056E000BF40F600427F
:10175000C4F20002904206D0604504D00022C4F2D8
:1017600001029042D9D14A6823F07003134341F635
:10177000FF72C4F200029042D5DD43F6FF72C4F25C
:101780000102904222DC42F20002C4F200029042C6
:101790002ED00022C4F20102904229D0604527D009
:1017A0002AE000BF40F60042C4F2000290421FD07F
:1017B00041F60002C4F20002904219D041F6004204
:1017C000C4F20002904213D016E000BF44F20002BF
:1017D000C4F2010290420BD044F60002C4F20102AE
:1017E000904205D044F20042C4F20102904203D17B
:1017F000CA6823F44073134323F080024B69D1F885
:1018000000E08C681A430260C46240F48062C0F851
:1018100028E0624504BF0969016301214161016952
:10182000C90708BF10BD016921F00101016110BDA8
:10183000FEE70000F0B581B00024C4F202042046A7
:101840000421FEF7B3FE40F27007C2F2000780B138
:10185000786838B904F580504FF480510122FEF7C2
:10186000ABFE786801280ED001B0F0BD0A20FEF76B
:10187000B5FD20460421FEF799FE0028F6D0012090
:1018800078600128F0D138690128EDD140F2D805FF
:10189000C2F2000528460021FFF706FE04F5805637
:1018A00030464FF400610022FEF786FE3888811F23
:1018B00003291FD8B9682A684B1DF96091629362A9
:1018C00001F10A03936201F10F03936201F1140322
:1018D000936201F119023329BA600BDB30464FF4F1
:1018E00080510122FEF768FE3220FEF777FDF9688D
:1018F0003888B960A0F10A0109291DD82320B860F1
:1019000030464FF480510022FEF756FEB868296831
:101910000022886220468021FEF74EFE20464021AC
:101920000022FEF749FE20460821012201B0BDE851
:10193000F040FEF741BE00BF1F281FD31720B8603C
:101940003220FEF74BFD30464FF480510022FEF767
:1019500033FE204640210122FEF72EFE20460821BC
:101960000022FEF729FE204680210022FEF724FEF9
:10197000B8682968886201B0F0BD00BF04283FF64E
:1019800073AF204680210122FEF716FE30464FF449
:1019900080510122FEF710FE3220FEF71FFD204687
:1019A00040210022FEF708FE20460821002201B057
:1019B000BDE8F040FEF700BE70B5002440F27005AF
:1019C000C4F20204C2F200050120286120464FF44F
:1019D00000710122FEF7F0FD286A0021416200BF7C
:1019E000416A092908D8416A092905D8416A0929A3
:1019F00002D8416A0A29F3D320464FF4007100222D
:101A0000FEF7DAFDFEF7DEFDE86100BF20464FF489
:101A10008071FEF7CBFD30B9E86900F10A06FEF7E8
:101A2000D1FD8642F2D8286A406A6861FEF7CAFD95
:101A3000E86100BF20464FF48071FEF7B7FD30B17A
:101A4000E86900F13206FEF7BDFD8642F2D8286A49
:101A50006969406AA861401A00F05BF99FED0A0BC2
:101A600053EC102B00F068F99FED090B53EC102B91
:101A700000F062F900F01EF9014632202980BDE82D
:101A80007040FEF7ABBC00BF9CC420B07268A13FA1
:101A9000000000000000E03F8EB040F20008C4F2F9
:101AA0000208FEF7A3FDFFF7BBFD002743F6300059
:101AB000CDE904770A97C4F202000168002241F0E0
:101AC0001001016001684FF4327A01F010010A91AF
:101AD0000A990A97016841F080010160016801F0EC
:101AE00080010A910A990A97016841F00101016099
:101AF00000684FF4327100F001000A900A984046E5
:101B0000FEF75AFD08F5805528464FF4C0510022D3
:101B10004FF4C059FEF750FD042001AECDE9010796
:101B20000124284631460394FEF76CFC0720CDE9DA
:101B30000107404631460394FEF764FC40463146B7
:101B4000CDE901A4CDE90377FEF75CFC28463146D8
:101B5000CDE90194CDE90377FEF754FC4FF4807092
:101B6000CDE90107404631460397FEF74BFC40F2B2
:101B70007004C2F20004A8F58031204640F8201F0E
:101B800047214FF6FF720497CDE90277CDE90A7736
:101B9000C0E90117C0E90327C0E90577FFF7E8F8B6
:101BA00010B172B6FEE700BF4FF4805004F120057B
:101BB000019001A92846FFF791F918B172B600BF4C
:101BC000FEE700BF0AA92846FFF776F810B172B603
:101BD000FEE700BF40F2D8000021C2F200004FF043
:101BE0008042472363270D91CDE90B11CDE9081100
:101BF000CDE90611CDE90411C0E90023C0E90217BF
:101C000001618161FFF7B4F810B172B6FEE700BF61
:101C10004FF480500A9040F2D800C2F200000AA9A6
:101C2000FFF75CF910B172B6FEE700BF40F2D800D2
:101C3000C2F20000FFF706FC10B172B6FEE700BF6B
:101C400040F2D800C2F2000008A9FFF735F818B139
:101C500072B600BFFEE700BF602001903120029005
:101C600000200390059040F2D800C2F2000001A9C4
:101C70000022FFF7D5FA18B172B600BFFEE700BF29
:101C800040F2D806C2F200063046FFF79FFA284617
:101C9000FFF7D2F840464FF400710022FEF78CFCAB
:101CA0003046FFF7C9F800BFFFF7C4FDFFF784FE19
:101CB000FAE700004FEA41034FEA5353A3F580636C
:101CC000D3F11E03C8BFD3F1210C0CDD4FF000424D
:101CD00042EAC12242EA505232FA03FC8CEAE17C29
:101CE000ACEBE1707047102BC4BF0020704703F5C8
:101CF000787CBCF1FF3F04D06FF0004282EA210003
:101D0000704770B500F0C2F84992248000207047F7
:101D1000F2E7B0FA80F310FA03F10AD0C3F11D0321
:101D200003F580634FEA03524FEA415002EBD121A1
:101D300070474FF00000704770B5DFF848C11CEAEB
:101D4000111E1EBF1CEA13159EEA0C0F95EA0C0F1C
:101D500000F06F8081EA03044EEAD47EAE4421EAAB
:101D60004C1123EA4C1341F4801143F48013AEF17B
:101D70007F7EA1FB024CA0FB0365361955EB0C05D9
:101D8000A1FB034C4CF10003A0FB021C16EB0C065C
:101D9000654153F10003094218BF46F0010613F4F0
:101DA000007F0BD14FEA03314FEA053041EA15516C
:101DB00040EA165034036FF003020AE04FEAC321F1
:101DC0004FEAC52041EA555140EA5650F4026FF0FF
:101DD000020202EB2E4201EB025585EACE710AD0D7
:101DE0005FEA440C18BF24F0004450F1000041F1B8
:101DF000000120EAD47040F2FE7C624500D270BD42
:101E0000A84214BF4FF080444FF04044002E08BF5A
:101E10000024BEF1806FA8BFA1F1C041BDE87040B1
:101E200080F2828001F1C04101F000414FF00000DA
:101E300070470CEA13159EEA0C0F18BF95EA0C0FB9
:101E400006D081EA030E4FF000000EF0004170BD95
:101E500000F01CF88900013E00F007B800F009B856
:101E60004FEA430C5FEA5C5C08D081EA030100F0B2
:101E70005BB84FEA410C5FEA5C5CF6D102494FF077
:101E8000000070470000FF070000F87F0EF1020E0F
:101E90002EF0030E5EF8046B364205D4012A43EBA4
:101EA000030515F5001F12D8012841EB010C1CF5A4
:101EB000001F0CD80ED14FEAD17C0CEB4C0C0CF16E
:101EC000020C15F5001F08BF4CEBD37C04E04FF06B
:101ED000080C01E04FEAD37C0CEB4C0526FA05F622
:101EE00006F00706B6F1040C06D20EEB860CBDE830
:101EF00070404CF0010C6047DFE80CF0090B020267
:101F00004FF00041A1F500214FF0000070BD1946CF
:101F10001046012851EB010418BFD4F5001484BF0A
:101F2000002001F0004170BD0808A0F500114FEA43
:101F300031017047F1EE100A4FF6FF71C0F2C03167
:101F400020EA010040F04070E1EE100A7047000006
:101F50000000000000000102030406070809000059
:101F60000200000004000000080000001000000053
:101F7000FDFFFFFFFBFFFFFFF7FFFFFFEFFFFFFF8F
:101F8000A01F00080000002010000000C40100088D
:101F9000B01F00081000002018070000E001000832
:101FA00001000000100000000024F4000000000008
:040000050800018965
:00000001FF
